{
  "_format": "hh-sol-artifact-1",
  "contractName": "ChannelPublication",
  "sourceName": "contracts/ChannelPublication.sol",
  "abi": [
    {
      "inputs": [],
      "stateMutability": "nonpayable",
      "type": "constructor"
    },
    {
      "anonymous": false,
      "inputs": [
        {
          "indexed": false,
          "internalType": "address",
          "name": "previousAdmin",
          "type": "address"
        },
        {
          "indexed": false,
          "internalType": "address",
          "name": "newAdmin",
          "type": "address"
        }
      ],
      "name": "AdminChanged",
      "type": "event"
    },
    {
      "anonymous": false,
      "inputs": [
        {
          "indexed": true,
          "internalType": "address",
          "name": "beacon",
          "type": "address"
        }
      ],
      "name": "BeaconUpgraded",
      "type": "event"
    },
    {
      "anonymous": false,
      "inputs": [
        {
          "indexed": false,
          "internalType": "uint8",
          "name": "version",
          "type": "uint8"
        }
      ],
      "name": "Initialized",
      "type": "event"
    },
    {
      "anonymous": false,
      "inputs": [
        {
          "indexed": true,
          "internalType": "bytes32",
          "name": "role",
          "type": "bytes32"
        },
        {
          "indexed": true,
          "internalType": "bytes32",
          "name": "previousAdminRole",
          "type": "bytes32"
        },
        {
          "indexed": true,
          "internalType": "bytes32",
          "name": "newAdminRole",
          "type": "bytes32"
        }
      ],
      "name": "RoleAdminChanged",
      "type": "event"
    },
    {
      "anonymous": false,
      "inputs": [
        {
          "indexed": true,
          "internalType": "bytes32",
          "name": "role",
          "type": "bytes32"
        },
        {
          "indexed": true,
          "internalType": "address",
          "name": "account",
          "type": "address"
        },
        {
          "indexed": true,
          "internalType": "address",
          "name": "sender",
          "type": "address"
        }
      ],
      "name": "RoleGranted",
      "type": "event"
    },
    {
      "anonymous": false,
      "inputs": [
        {
          "indexed": true,
          "internalType": "bytes32",
          "name": "role",
          "type": "bytes32"
        },
        {
          "indexed": true,
          "internalType": "address",
          "name": "account",
          "type": "address"
        },
        {
          "indexed": true,
          "internalType": "address",
          "name": "sender",
          "type": "address"
        }
      ],
      "name": "RoleRevoked",
      "type": "event"
    },
    {
      "anonymous": false,
      "inputs": [
        {
          "indexed": false,
          "internalType": "bytes32",
          "name": "_tokenType",
          "type": "bytes32"
        },
        {
          "indexed": false,
          "internalType": "uint256",
          "name": "tokenId",
          "type": "uint256"
        },
        {
          "indexed": false,
          "internalType": "string",
          "name": "contentURI",
          "type": "string"
        }
      ],
      "name": "TokenContentPublished",
      "type": "event"
    },
    {
      "anonymous": false,
      "inputs": [
        {
          "indexed": false,
          "internalType": "address",
          "name": "tokenContractAddress",
          "type": "address"
        },
        {
          "indexed": false,
          "internalType": "bytes32",
          "name": "tokenType",
          "type": "bytes32"
        }
      ],
      "name": "TokenTypeAdded",
      "type": "event"
    },
    {
      "anonymous": false,
      "inputs": [
        {
          "indexed": false,
          "internalType": "address",
          "name": "tokenContractAddress",
          "type": "address"
        },
        {
          "indexed": false,
          "internalType": "bytes32",
          "name": "tokenType",
          "type": "bytes32"
        }
      ],
      "name": "TokenTypeRemoved",
      "type": "event"
    },
    {
      "anonymous": false,
      "inputs": [
        {
          "indexed": true,
          "internalType": "address",
          "name": "implementation",
          "type": "address"
        }
      ],
      "name": "Upgraded",
      "type": "event"
    },
    {
      "inputs": [],
      "name": "DEFAULT_ADMIN_ROLE",
      "outputs": [
        {
          "internalType": "bytes32",
          "name": "",
          "type": "bytes32"
        }
      ],
      "stateMutability": "view",
      "type": "function"
    },
    {
      "inputs": [],
      "name": "UPGRADER_ROLE",
      "outputs": [
        {
          "internalType": "bytes32",
          "name": "",
          "type": "bytes32"
        }
      ],
      "stateMutability": "view",
      "type": "function"
    },
    {
      "inputs": [
        {
          "internalType": "bytes32",
          "name": "_tokenType",
          "type": "bytes32"
        },
        {
          "internalType": "address",
          "name": "_tokenContractAddress",
          "type": "address"
        }
      ],
      "name": "addTokenType",
      "outputs": [],
      "stateMutability": "nonpayable",
      "type": "function"
    },
    {
      "inputs": [
        {
          "internalType": "bytes32",
          "name": "role",
          "type": "bytes32"
        }
      ],
      "name": "getRoleAdmin",
      "outputs": [
        {
          "internalType": "bytes32",
          "name": "",
          "type": "bytes32"
        }
      ],
      "stateMutability": "view",
      "type": "function"
    },
    {
      "inputs": [
        {
          "internalType": "bytes32",
          "name": "role",
          "type": "bytes32"
        },
        {
          "internalType": "address",
          "name": "account",
          "type": "address"
        }
      ],
      "name": "grantRole",
      "outputs": [],
      "stateMutability": "nonpayable",
      "type": "function"
    },
    {
      "inputs": [
        {
          "internalType": "bytes32",
          "name": "role",
          "type": "bytes32"
        },
        {
          "internalType": "address",
          "name": "account",
          "type": "address"
        }
      ],
      "name": "hasRole",
      "outputs": [
        {
          "internalType": "bool",
          "name": "",
          "type": "bool"
        }
      ],
      "stateMutability": "view",
      "type": "function"
    },
    {
      "inputs": [],
      "name": "initialize",
      "outputs": [],
      "stateMutability": "nonpayable",
      "type": "function"
    },
    {
      "inputs": [
        {
          "internalType": "address",
          "name": "_account",
          "type": "address"
        }
      ],
      "name": "isAdmin",
      "outputs": [
        {
          "internalType": "bool",
          "name": "",
          "type": "bool"
        }
      ],
      "stateMutability": "view",
      "type": "function"
    },
    {
      "inputs": [],
      "name": "proxiableUUID",
      "outputs": [
        {
          "internalType": "bytes32",
          "name": "",
          "type": "bytes32"
        }
      ],
      "stateMutability": "view",
      "type": "function"
    },
    {
      "inputs": [
        {
          "internalType": "bytes32",
          "name": "_tokenType",
          "type": "bytes32"
        },
        {
          "internalType": "uint256",
          "name": "_tokenId",
          "type": "uint256"
        },
        {
          "internalType": "string",
          "name": "_contentURI",
          "type": "string"
        }
      ],
      "name": "publishContent",
      "outputs": [],
      "stateMutability": "nonpayable",
      "type": "function"
    },
    {
      "inputs": [
        {
          "internalType": "bytes32",
          "name": "_tokenType",
          "type": "bytes32"
        },
        {
          "internalType": "uint256",
          "name": "_tokenId",
          "type": "uint256"
        }
      ],
      "name": "publishedContent",
      "outputs": [
        {
          "internalType": "string",
          "name": "",
          "type": "string"
        }
      ],
      "stateMutability": "view",
      "type": "function"
    },
    {
      "inputs": [
        {
          "internalType": "bytes32",
          "name": "_tokenType",
          "type": "bytes32"
        }
      ],
      "name": "removeTokenType",
      "outputs": [],
      "stateMutability": "nonpayable",
      "type": "function"
    },
    {
      "inputs": [
        {
          "internalType": "bytes32",
          "name": "role",
          "type": "bytes32"
        },
        {
          "internalType": "address",
          "name": "account",
          "type": "address"
        }
      ],
      "name": "renounceRole",
      "outputs": [],
      "stateMutability": "nonpayable",
      "type": "function"
    },
    {
      "inputs": [
        {
          "internalType": "bytes32",
          "name": "role",
          "type": "bytes32"
        },
        {
          "internalType": "address",
          "name": "account",
          "type": "address"
        }
      ],
      "name": "revokeRole",
      "outputs": [],
      "stateMutability": "nonpayable",
      "type": "function"
    },
    {
      "inputs": [
        {
          "internalType": "bytes4",
          "name": "interfaceId",
          "type": "bytes4"
        }
      ],
      "name": "supportsInterface",
      "outputs": [
        {
          "internalType": "bool",
          "name": "",
          "type": "bool"
        }
      ],
      "stateMutability": "view",
      "type": "function"
    },
    {
      "inputs": [
        {
          "internalType": "bytes32",
          "name": "_tokenType",
          "type": "bytes32"
        }
      ],
      "name": "tokenContract",
      "outputs": [
        {
          "internalType": "address",
          "name": "",
          "type": "address"
        }
      ],
      "stateMutability": "view",
      "type": "function"
    },
    {
      "inputs": [
        {
          "internalType": "bytes32",
          "name": "",
          "type": "bytes32"
        }
      ],
      "name": "tokenTypes",
      "outputs": [
        {
          "internalType": "address",
          "name": "",
          "type": "address"
        }
      ],
      "stateMutability": "view",
      "type": "function"
    },
    {
      "inputs": [
        {
          "internalType": "address",
          "name": "newImplementation",
          "type": "address"
        }
      ],
      "name": "upgradeTo",
      "outputs": [],
      "stateMutability": "nonpayable",
      "type": "function"
    },
    {
      "inputs": [
        {
          "internalType": "address",
          "name": "newImplementation",
          "type": "address"
        },
        {
          "internalType": "bytes",
          "name": "data",
          "type": "bytes"
        }
      ],
      "name": "upgradeToAndCall",
      "outputs": [],
      "stateMutability": "payable",
      "type": "function"
    },
    {
      "inputs": [],
      "name": "version",
      "outputs": [
        {
          "internalType": "uint256",
          "name": "",
          "type": "uint256"
        }
      ],
      "stateMutability": "view",
      "type": "function"
    }
  ],
  "bytecode": "0x60a06040523060805234801561001457600080fd5b5061001d610022565b6100e2565b600054610100900460ff161561008e5760405162461bcd60e51b815260206004820152602760248201527f496e697469616c697a61626c653a20636f6e747261637420697320696e697469604482015266616c697a696e6760c81b606482015260840160405180910390fd5b60005460ff90811610156100e0576000805460ff191660ff9081179091556040519081527f7f26b83ff96e1f2b6a682f133852f6798a09c465da95921460cefb38474024989060200160405180910390a15b565b608051611984610119600039600081816106d601528181610716015281816107b6015281816107f6015261088501526119846000f3fe60806040526004361061011f5760003560e01c806354fd4d50116100a05780639696bc52116100645780639696bc521461035d578063a217fddf1461037d578063a46e5ebf14610392578063d547741f146103b2578063f72c0d8b146103d257600080fd5b806354fd4d50146102af57806379dd13ca146102c55780638129fc1c146102fb5780638762bd371461031057806391d148541461033d57600080fd5b80632f2ff15d116100e75780632f2ff15d1461022757806336568abe146102475780633659cfe6146102675780634f1ef2861461028757806352d1902d1461029a57600080fd5b806301ffc9a7146101245780632203a92414610159578063248a9ca3146101a757806324d7806c146101e5578063262c925514610205575b600080fd5b34801561013057600080fd5b5061014461013f366004611436565b610406565b60405190151581526020015b60405180910390f35b34801561016557600080fd5b5061018f610174366004611460565b60fd602052600090815260409020546001600160a01b031681565b6040516001600160a01b039091168152602001610150565b3480156101b357600080fd5b506101d76101c2366004611460565b60009081526065602052604090206001015490565b604051908152602001610150565b3480156101f157600080fd5b5061014461020036600461148e565b61043d565b34801561021157600080fd5b506102256102203660046114ab565b610449565b005b34801561023357600080fd5b5061022561024236600461152b565b610623565b34801561025357600080fd5b5061022561026236600461152b565b61064d565b34801561027357600080fd5b5061022561028236600461148e565b6106cb565b610225610295366004611571565b6107ab565b3480156102a657600080fd5b506101d7610878565b3480156102bb57600080fd5b506101d760fb5481565b3480156102d157600080fd5b5061018f6102e0366004611460565b600090815260fd60205260409020546001600160a01b031690565b34801561030757600080fd5b5061022561092b565b34801561031c57600080fd5b5061033061032b366004611635565b610a7d565b6040516101509190611683565b34801561034957600080fd5b5061014461035836600461152b565b610b2b565b34801561036957600080fd5b5061022561037836600461152b565b610b56565b34801561038957600080fd5b506101d7600081565b34801561039e57600080fd5b506102256103ad366004611460565b610bcb565b3480156103be57600080fd5b506102256103cd36600461152b565b610c38565b3480156103de57600080fd5b506101d77f189ab7a9244df0848122154315af71fe140f3db0fe014031783b0946b8c9d2e381565b60006001600160e01b03198216637965db0b60e01b148061043757506301ffc9a760e01b6001600160e01b03198316145b92915050565b60006104378183610b2b565b600084815260fd6020526040902054849084906001600160a01b0316806104cf5760405162461bcd60e51b815260206004820152602f60248201527f5f746f6b656e49642073686f756c642062656c6f6e6720746f2061207375707060448201526e37b93a32b21021b7b73a3930b1ba1760891b60648201526084015b60405180910390fd5b6040516331a9108f60e11b81526004810183905281906001600160a01b03821690636352211e90602401602060405180830381865afa158015610516573d6000803e3d6000fd5b505050506040513d601f19601f8201168201806040525081019061053a91906116b6565b6001600160a01b0316336001600160a01b0316146105b75760405162461bcd60e51b815260206004820152603460248201527f4f6e6c7920746f6b656e206f776e65722063616e207075626c69736820636f6e60448201527374656e7420746f20746865206368616e6e656c2160601b60648201526084016104c6565b600088815260fc602090815260408083208a845290915290206105db90878761139d565b507f05e6334bae16bc24fdabf6cdb9d8f7a8674e71f3e865e0db3fb9e188c55062488888888860405161061194939291906116d3565b60405180910390a15050505050505050565b60008281526065602052604090206001015461063e81610c5d565b6106488383610c67565b505050565b6001600160a01b03811633146106bd5760405162461bcd60e51b815260206004820152602f60248201527f416363657373436f6e74726f6c3a2063616e206f6e6c792072656e6f756e636560448201526e103937b632b9903337b91039b2b63360891b60648201526084016104c6565b6106c78282610ced565b5050565b306001600160a01b037f00000000000000000000000000000000000000000000000000000000000000001614156107145760405162461bcd60e51b81526004016104c690611710565b7f00000000000000000000000000000000000000000000000000000000000000006001600160a01b031661075d600080516020611908833981519152546001600160a01b031690565b6001600160a01b0316146107835760405162461bcd60e51b81526004016104c69061175c565b61078c81610d54565b604080516000808252602082019092526107a891839190610d7e565b50565b306001600160a01b037f00000000000000000000000000000000000000000000000000000000000000001614156107f45760405162461bcd60e51b81526004016104c690611710565b7f00000000000000000000000000000000000000000000000000000000000000006001600160a01b031661083d600080516020611908833981519152546001600160a01b031690565b6001600160a01b0316146108635760405162461bcd60e51b81526004016104c69061175c565b61086c82610d54565b6106c782826001610d7e565b6000306001600160a01b037f000000000000000000000000000000000000000000000000000000000000000016146109185760405162461bcd60e51b815260206004820152603860248201527f555550535570677261646561626c653a206d757374206e6f742062652063616c60448201527f6c6564207468726f7567682064656c656761746563616c6c000000000000000060648201526084016104c6565b5060008051602061190883398151915290565b600054610100900460ff161580801561094b5750600054600160ff909116105b806109655750303b158015610965575060005460ff166001145b6109c85760405162461bcd60e51b815260206004820152602e60248201527f496e697469616c697a61626c653a20636f6e747261637420697320616c72656160448201526d191e481a5b9a5d1a585b1a5e995960921b60648201526084016104c6565b6000805460ff1916600117905580156109eb576000805461ff0019166101001790555b600160fb556109f8610ee9565b610a00610ee9565b610a0b600033610c67565b610a357f189ab7a9244df0848122154315af71fe140f3db0fe014031783b0946b8c9d2e333610c67565b80156107a8576000805461ff0019169055604051600181527f7f26b83ff96e1f2b6a682f133852f6798a09c465da95921460cefb38474024989060200160405180910390a150565b600082815260fc602090815260408083208484529091529020805460609190610aa5906117a8565b80601f0160208091040260200160405190810160405280929190818152602001828054610ad1906117a8565b8015610b1e5780601f10610af357610100808354040283529160200191610b1e565b820191906000526020600020905b815481529060010190602001808311610b0157829003601f168201915b5050505050905092915050565b60009182526065602090815260408084206001600160a01b0393909316845291905290205460ff1690565b6000610b6181610c5d565b600083815260fd602090815260409182902080546001600160a01b0319166001600160a01b03861690811790915582519081529081018590527f2ee060d039496a8e0c3cb31479e48f1688a41c166588445a224651c3dc2d02b091015b60405180910390a1505050565b6000610bd681610c5d565b600082815260fd602090815260409182902080546001600160a01b0319811690915582516001600160a01b0390911680825291810185905290917fe878ca4140bba196b6a5297aa66dea937fe7c5a8e57bb5aa2bc405d594e674889101610bbe565b600082815260656020526040902060010154610c5381610c5d565b6106488383610ced565b6107a88133610f56565b610c718282610b2b565b6106c75760008281526065602090815260408083206001600160a01b03851684529091529020805460ff19166001179055610ca93390565b6001600160a01b0316816001600160a01b0316837f2f8788117e7eff1d82e926ec794901d17c78024a50270940304540a733656f0d60405160405180910390a45050565b610cf78282610b2b565b156106c75760008281526065602090815260408083206001600160a01b0385168085529252808320805460ff1916905551339285917ff6391f5c32d9c69d2a47ea670b442974b53935d1edc7fd64eb21e047a839171b9190a45050565b7f189ab7a9244df0848122154315af71fe140f3db0fe014031783b0946b8c9d2e36106c781610c5d565b7f4910fdfa16fed3260ed0e7147f7cc6da11a60208b5b9406d12a635614ffd91435460ff1615610db15761064883610faf565b826001600160a01b03166352d1902d6040518163ffffffff1660e01b8152600401602060405180830381865afa925050508015610e0b575060408051601f3d908101601f19168201909252610e08918101906117e3565b60015b610e6e5760405162461bcd60e51b815260206004820152602e60248201527f45524331393637557067726164653a206e657720696d706c656d656e7461746960448201526d6f6e206973206e6f74205555505360901b60648201526084016104c6565b6000805160206119088339815191528114610edd5760405162461bcd60e51b815260206004820152602960248201527f45524331393637557067726164653a20756e737570706f727465642070726f786044820152681a58589b195555525160ba1b60648201526084016104c6565b5061064883838361104b565b600054610100900460ff16610f545760405162461bcd60e51b815260206004820152602b60248201527f496e697469616c697a61626c653a20636f6e7472616374206973206e6f74206960448201526a6e697469616c697a696e6760a81b60648201526084016104c6565b565b610f608282610b2b565b6106c757610f6d81611076565b610f78836020611088565b604051602001610f899291906117fc565b60408051601f198184030181529082905262461bcd60e51b82526104c691600401611683565b6001600160a01b0381163b61101c5760405162461bcd60e51b815260206004820152602d60248201527f455243313936373a206e657720696d706c656d656e746174696f6e206973206e60448201526c1bdd08184818dbdb9d1c9858dd609a1b60648201526084016104c6565b60008051602061190883398151915280546001600160a01b0319166001600160a01b0392909216919091179055565b6110548361122b565b6000825111806110615750805b1561064857611070838361126b565b50505050565b60606104376001600160a01b03831660145b60606000611097836002611887565b6110a29060026118a6565b67ffffffffffffffff8111156110ba576110ba61155b565b6040519080825280601f01601f1916602001820160405280156110e4576020820181803683370190505b509050600360fc1b816000815181106110ff576110ff6118be565b60200101906001600160f81b031916908160001a905350600f60fb1b8160018151811061112e5761112e6118be565b60200101906001600160f81b031916908160001a9053506000611152846002611887565b61115d9060016118a6565b90505b60018111156111d5576f181899199a1a9b1b9c1cb0b131b232b360811b85600f1660108110611191576111916118be565b1a60f81b8282815181106111a7576111a76118be565b60200101906001600160f81b031916908160001a90535060049490941c936111ce816118d4565b9050611160565b5083156112245760405162461bcd60e51b815260206004820181905260248201527f537472696e67733a20686578206c656e67746820696e73756666696369656e7460448201526064016104c6565b9392505050565b61123481610faf565b6040516001600160a01b038216907fbc7cd75a20ee27fd9adebab32041f755214dbc6bffa90cc0225b39da2e5c2d3b90600090a250565b60606001600160a01b0383163b6112d35760405162461bcd60e51b815260206004820152602660248201527f416464726573733a2064656c65676174652063616c6c20746f206e6f6e2d636f6044820152651b9d1c9858dd60d21b60648201526084016104c6565b600080846001600160a01b0316846040516112ee91906118eb565b600060405180830381855af49150503d8060008114611329576040519150601f19603f3d011682016040523d82523d6000602084013e61132e565b606091505b509150915061135682826040518060600160405280602781526020016119286027913961135f565b95945050505050565b6060831561136e575081611224565b61122483838151156113835781518083602001fd5b8060405162461bcd60e51b81526004016104c69190611683565b8280546113a9906117a8565b90600052602060002090601f0160209004810192826113cb5760008555611411565b82601f106113e45782800160ff19823516178555611411565b82800160010185558215611411579182015b828111156114115782358255916020019190600101906113f6565b5061141d929150611421565b5090565b5b8082111561141d5760008155600101611422565b60006020828403121561144857600080fd5b81356001600160e01b03198116811461122457600080fd5b60006020828403121561147257600080fd5b5035919050565b6001600160a01b03811681146107a857600080fd5b6000602082840312156114a057600080fd5b813561122481611479565b600080600080606085870312156114c157600080fd5b8435935060208501359250604085013567ffffffffffffffff808211156114e757600080fd5b818701915087601f8301126114fb57600080fd5b81358181111561150a57600080fd5b88602082850101111561151c57600080fd5b95989497505060200194505050565b6000806040838503121561153e57600080fd5b82359150602083013561155081611479565b809150509250929050565b634e487b7160e01b600052604160045260246000fd5b6000806040838503121561158457600080fd5b823561158f81611479565b9150602083013567ffffffffffffffff808211156115ac57600080fd5b818501915085601f8301126115c057600080fd5b8135818111156115d2576115d261155b565b604051601f8201601f19908116603f011681019083821181831017156115fa576115fa61155b565b8160405282815288602084870101111561161357600080fd5b8260208601602083013760006020848301015280955050505050509250929050565b6000806040838503121561164857600080fd5b50508035926020909101359150565b60005b8381101561167257818101518382015260200161165a565b838111156110705750506000910152565b60208152600082518060208401526116a2816040850160208701611657565b601f01601f19169190910160400192915050565b6000602082840312156116c857600080fd5b815161122481611479565b84815283602082015260606040820152816060820152818360808301376000818301608090810191909152601f909201601f191601019392505050565b6020808252602c908201527f46756e6374696f6e206d7573742062652063616c6c6564207468726f7567682060408201526b19195b1959d85d1958d85b1b60a21b606082015260800190565b6020808252602c908201527f46756e6374696f6e206d7573742062652063616c6c6564207468726f7567682060408201526b6163746976652070726f787960a01b606082015260800190565b600181811c908216806117bc57607f821691505b602082108114156117dd57634e487b7160e01b600052602260045260246000fd5b50919050565b6000602082840312156117f557600080fd5b5051919050565b7f416363657373436f6e74726f6c3a206163636f756e7420000000000000000000815260008351611834816017850160208801611657565b7001034b99036b4b9b9b4b733903937b6329607d1b6017918401918201528351611865816028840160208801611657565b01602801949350505050565b634e487b7160e01b600052601160045260246000fd5b60008160001904831182151516156118a1576118a1611871565b500290565b600082198211156118b9576118b9611871565b500190565b634e487b7160e01b600052603260045260246000fd5b6000816118e3576118e3611871565b506000190190565b600082516118fd818460208701611657565b919091019291505056fe360894a13ba1a3210667c828492db98dca3e2076cc3735a920a3ca505d382bbc416464726573733a206c6f772d6c6576656c2064656c65676174652063616c6c206661696c6564a2646970667358221220edbc56e65c16a0488df9ad8bb2a166adc98355005bb71cbf32e5786fc59dc7e764736f6c634300080b0033",
  "linkReferences": {},
  "deployedLinkReferences": {}
}